:020000040800F2
:10000000002800206D0E0008890C00088F0C0008E5
:10001000950C00089B0C0008A10C000800000000D3
:10002000000000000000000000000000A70C000815
:10003000B30C000800000000BF0C0008CB0C000847
:10004000B50E0008B50E0008B50E0008B50E000884
:10005000B50E0008B50E0008B50E0008B50E000874
:10006000B50E0008B50E0008B50E0008B50E000864
:10007000B50E0008B50E0008B50E0008B50E000854
:10008000B50E0008B50E0008B50E0008B50E000844
:10009000B50E0008B50E0008B50E0008B50E000834
:1000A000B50E0008B50E0008B50E0008B50E000824
:1000B000D90C0008B50E000800000000B50E0008BD
:1000C000B50E00080000000000000000B50E00089A
:1000D00000000000B50E0008B50E0008000000008A
:1000E000B50E0008B50E0008B50E000800000000AF
:1000F0000000000000000000000000000000000000
:0C01000000000000000000005FF808F1A3
:10010C0010B5054C237833B9044B13B10448AFF345
:10011C0000800123237010BD84000020000000002B
:10012C00182E000808B5034B1BB103490348AFF365
:10013C00008008BD0000000088000020182E000878
:10014C0080B584B000AF78600C2002F0A5F90346AE
:10015C00FB60FB68002B05D1094802F067FB01200E
:10016C0002F088F9FB687A681A60FB6800225A6012
:10017C00FB6800229A60FB6818461037BD4680BDAC
:10018C00302E000880B584B000AF786039603868D4
:10019C00FFF7D6FFB8607B681B68002B03D17B6828
:1001AC00BA681A6010E07B681B68FB6002E0FB68B1
:1001BC009B68FB60FB689B68002BF8D1FB68BA68F6
:1001CC009A60BB68FA685A601037BD4680BD80B42F
:1001DC0085B000AF78607B681B68FB6002E0FB6851
:1001EC009B68FB60FB689B68002BF8D17B681A68E6
:1001FC00FB689A6000BF1437BD4680BC7047000096
:10020C0080B582B000AF78607B68032B04DD304B87
:10021C0000221A6000237B607B68032B50D801A25C
:10022C0052F823F04102000863020008850200081E
:10023C00A902000800224021264801F023F90122DE
:10024C004FF46071234801F01DF9234B1B681846CD
:10025C0000F0AAF838E0002280211E4801F012F9C3
:10026C0001224FF450711B4801F00CF91A4B5B68DA
:10027C00184600F099F827E000224FF480711548D9
:10028C0001F000F901224FF43071124801F0FAF834
:10029C00114B9B68184600F087F815E000224FF4CC
:1002AC0000710C4801F0EEF801224FF4E07109489E
:1002BC0001F0E8F8084BDB68184600F075F803E02D
:1002CC00002000F071F800BF00BF0837BD4680BDAC
:1002DC00E8000020000801400000002080B400AFBE
:1002EC002C4B1B6801332B4A13602A4B1B683B2B8E
:1002FC0007DD284B00221A60274B1B680133264A66
:10030C001360254B1B683B2B07DD234B00221A6027
:10031C00224B1B680133214A1360204B1B68172B9F
:10032C0002DD1E4B00221A601C4B1B681C4A82FB10
:10033C0003129210DB17D31A1A4A1360174B196861
:10034C00174B83FB01239A10CB17D21A13469B0031
:10035C0013445B00CA1A134B5A600F4B1B68104AAC
:10036C0082FB03129210DB17D31A0E4A93600A4BCE
:10037C0019680B4B83FB01239A10CB17D21A134627
:10038C009B0013445B00CA1A064BDA6000BFBD46E3
:10039C0080BC7047180000201400002010000020C2
:1003AC00676666660000002080B582B000AF78609A
:1003BC007B68092B7FD801A252F823F0F1030008C7
:1003CC00070400081D040008330400084904000851
:1003DC005F040008750400088B040008A1040008E1
:1003EC00AD04000800227F21384801F04BF80122AF
:1003FC004021364801F046F863E0002206213348DC
:10040C0001F040F801227921304801F03BF858E026
:10041C0000225B212D4801F035F8012224212B48C4
:10042C0001F030F84DE000224F21284801F02AF865
:10043C0001223021254801F025F842E000226621F6
:10044C00224801F01FF801221921204801F01AF866
:10045C0037E000226D211D4801F014F80122122111
:10046C001A4801F00FF82CE001220221174801F084
:10047C0009F800227D21154801F004F821E0002242
:10048C000721124800F0FEFF012278210F4800F0EE
:10049C00F9FF16E000227F210C4800F0F3FF10E07A
:1004AC0000227F21094800F0EDFF012210210748AE
:1004BC0000F0E8FF05E000227F21044800F0E2FF95
:1004CC0000BF00BF0837BD4680BD00BF000C014017
:1004DC0080B582B000AF78607B68072B78D801A21A
:1004EC0052F823F011050008290500084105000801
:1004FC005B050008750500088F050008A9050008B4
:10050C00C305000801220421374800F0BBFF00227C
:10051C004FF60841344800F0B5FF60E00122082195
:10052C00314800F0AFFF00224FF604412E4800F096
:10053C00A9FF54E001224FF480612B4800F0A2FF88
:10054C0000224FF60C01284800F09CFF47E00122E6
:10055C004FF40061244800F095FF00224FF20C414B
:10056C00214800F08FFF3AE001224FF480511E48E1
:10057C0000F088FF00224EF60C411B4800F082FF71
:10058C002DE001224FF40051174800F07BFF0022B0
:10059C004DF60C41144800F075FF20E001224FF499
:1005AC008041114800F06EFF00224BF60C410E48C2
:1005BC0000F068FF13E001224FF400410A4800F0FC
:1005CC0061FF002247F60C41074800F05BFF06E094
:1005DC0000224FF60C41044800F054FF00BF00BF4E
:1005EC000837BD4680BD00BF0008014080B582B011
:1005FC0000AF78607B68072B4AD801A252F823F031
:10060C002D0600083B06000849060008570600089E
:10061C006506000873060008810600088F060008AE
:10062C0001224FF48071204800F02CFF37E00122AA
:10063C004FF400711C4800F025FF30E001224FF40C
:10064C008061194800F01EFF29E001224FF400617F
:10065C00154800F017FF22E001224FF48051124898
:10066C0000F010FF1BE001224FF400510E4800F087
:10067C0009FF14E001224FF480410B4800F002FF07
:10068C000DE001224FF40041074800F0FBFE06E0AC
:10069C0000224FF47F41044800F0F4FE00BF00BF7D
:1006AC000837BD4680BD00BF000C014080B5CEB000
:1006BC0000AF00F0FBFB0723C7F8343107F59C7340
:1006CC00A3F58A73704A184611464FF480731A4684
:1006DC0002F017FA07F59C73A3F59A7318462023BA
:1006EC001A46002102F082F90023C7F830312DE0C0
:1006FC000023C7F82C3118E03A1DD7F830319B0095
:10070C00D01807F59C73A3F58A73D7F83021D10064
:10071C00D7F82C210A4453F822301946FFF732FD42
:10072C00D7F82C310133C7F82C31D7F82C31072BE3
:10073C00E2DD3A1DD7F830319B0013441846FFF721
:10074C0046FDD7F830310133C7F83031D7F83031A6
:10075C00072BCDDD07F59C73A3F59A73D7F83421DD
:10076C0053F82230C7F8283100F09EF800F024F935
:10077C0000F0D6F8454801F0E5FA0A2000F082F9BD
:10078C00642000F093F9322000F0A4F9012000F06D
:10079C00B5F93F4B1B68012B04D1FFF79FFD0A20D5
:1007AC0000F070F93B4B1B68012B0AD120213A4811
:1007BC0000F080FE1021384800F07CFE642000F030
:1007CC0075F9364B1B68012B0AD1354B1B685A1C2B
:1007DC0033490A601846FFF713FD322000F07AF90E
:1007EC00304B1B68012BD4D14FF0FF30FFF7FEFECE
:1007FC00D7F83401FFF76CFE0023C7F8243112E060
:10080C00D7F828311B68012B03D1D7F82401FFF747
:10081C00EDFED7F828319B68C7F82831D7F824317A
:10082C000133C7F82431D7F82431072BE8DD07F55D
:10083C009C73A3F59A73D7F8342153F82230996836
:10084C0007F59C73A3F59A73D7F8342143F822105B
:10085C00D7F83431013BC7F83431D7F83431B3F120
:10086C00FF3F02D10723C7F8343107F59C73A3F57A
:10087C009A73D7F8342153F82230C7F82831012065
:10088C0000F03CF985E700BF4C2E0008A0000020CA
:10089C00FC000020000100200008014004010020A1
:1008AC00E80000200801002080B590B000AF07F1EF
:1008BC00180328220021184602F098F83B1D00224C
:1008CC001A605A609A60DA601A610223BB610123D4
:1008DC00BB621023FB6200237B6307F118031846ED
:1008EC0000F002FE0346002B01D000F0C5F80F23E8
:1008FC007B600023BB600023FB6000233B61002373
:10090C007B613B1D0021184601F070F80346002B5B
:10091C0001D000F0B1F800BF4037BD4680BD0000EB
:10092C0080B586B000AF07F1080300221A605A6048
:10093C009A60DA603B4600221A605A601D4B4FF0F9
:10094C0080421A601B4B41F63F725A60194B0022D1
:10095C009A60184B0922DA60164B00221A61154B6B
:10096C0000229A61134801F09DF90346002B01D037
:10097C0000F082F84FF48053BB6007F1080319466E
:10098C000C4801F033FB0346002B01D000F074F847
:10099C0000233B6000237B603B461946054801F071
:1009AC00FFFC0346002B01D000F066F800BF18379F
:1009BC00BD4680BDA000002080B586B000AF07F119
:1009CC00080300221A605A609A60DA60224B9B6915
:1009DC00214A43F0040393611F4B9B6903F004030A
:1009EC007B607B681C4B9B691B4A43F0080393613B
:1009FC00194B9B6903F008033B603B6800224FF6E0
:100A0C00FC71164800F03EFD00224FF67F71144831
:100A1C0000F038FD4FF6FC73BB600123FB60002334
:100A2C003B6102237B6107F1080319460B4800F078
:100A3C00ADFB4FF67F73BB600123FB6000233B6172
:100A4C0002237B6107F108031946054800F09EFB61
:100A5C0000BF1837BD4680BD0010024000080140A1
:100A6C00000C014080B582B000AF786000F05AF8FD
:100A7C0000BF0837BD4680BD80B400AF72B600BF62
:100A8C00FEE7000080B483B000AF7860054A7B6855
:100A9C001360054B00221A6000BF0C37BD4680BCAA
:100AAC00704700BFEC000020FC00002080B483B035
:100ABC0000AF7860054A7B681360054B00221A6012
:100ACC0000BF0C37BD4680BC704700BFF000002053
:100ADC000001002080B483B000AF7860054A7B68C9
:100AEC001360054B00221A6000BF0C37BD4680BC5A
:100AFC00704700BFF40000200401002080B483B0D4
:100B0C0000AF7860054A7B681360054B00221A60C1
:100B1C0000BF0C37BD4680BC704700BFF8000020FA
:100B2C000801002080B400AF214B1B68002B0BDDAB
:100B3C001F4B1B68013B1E4A13601D4B1B68002B8F
:100B4C0002DC1C4B01221A601B4B1B68002B0BDDBB
:100B5C00194B1B68013B184A1360174B1B68002B81
:100B6C0002DC164B01221A60154B1B68002B0BDDA7
:100B7C00134B1B68013B124A1360114B1B68002B73
:100B8C0002DC104B01221A600F4B1B68002B0BDD93
:100B9C000D4B1B68013B0C4A13600B4B1B68002B65
:100BAC0002DC0A4B01221A6000BFBD4680BC7047B4
:100BBC00EC000020FC000020F000002000010020D0
:100BCC00F400002004010020F8000020080100209F
:100BDC0080B485B000AF154B9B69144A43F00103F8
:100BEC009361124B9B6903F00103BB60BB680F4B15
:100BFC00DB690E4A43F08053D3610C4BDB6903F085
:100C0C0080537B607B680A4B5B68FB60FB6823F05E
:100C1C00E063FB60FB6843F08063FB60044AFB68A5
:100C2C00536000BF1437BD4680BC704700100240B3
:100C3C000000014080B584B000AF78607B681B6811
:100C4C00B3F1804F13D10C4BDB690B4A43F001031A
:100C5C00D361094BDB6903F00103FB60FB680022E5
:100C6C0000211C2000F05BFA1C2000F074FA00BF7D
:100C7C001037BD4680BD00BF0010024080B400AFED
:100C8C00FEE780B400AFFEE780B400AFFEE780B4AF
:100C9C0000AFFEE780B400AFFEE780B400AF00BF4A
:100CAC00BD4680BC704780B400AF00BFBD4680BC61
:100CBC00704780B400AF00BFBD4680BC704780B5A4
:100CCC0000AF00F039F900BF80BD000080B500AF67
:100CDC00024801F083F800BF80BD00BFA0000020D7
:100CEC0080B582B000AF7860396001F0DDFE03465C
:100CFC0016221A604FF0FF3318460837BD4680BDE8
:100D0C0080B582B000AF78604FF0FF317868FFF7A4
:100D1C00E7FFFEE780B586B000AFF860B9607A6097
:100D2C0000237B610AE0AFF300800146BB685A1CCC
:100D3C00BA60CAB21A707B6901337B617A697B68CD
:100D4C009A42F0DB7B6818461837BD4680BD80B5EB
:100D5C0086B000AFF860B9607A6000237B6109E06F
:100D6C00BB685A1CBA601B781846AFF300807B69CD
:100D7C0001337B617A697B689A42F1DB7B681846A8
:100D8C001837BD4680BD80B483B000AF78604FF09B
:100D9C00FF3318460C37BD4680BC704780B483B017
:100DAC0000AF786039603B684FF400525A60002302
:100DBC0018460C37BD4680BC704780B483B000AF7A
:100DCC007860012318460C37BD4680BC704780B450
:100DDC0085B000AFF860B9607A600023184614370C
:100DEC00BD4680BC7047000080B586B000AF78600F
:100DFC00144A154BD31A7B617B693B61134B1B68FF
:100E0C00002B02D1114B124A1A60104B1A687B68E6
:100E1C0013443A699A4207D201F046FE03460C226B
:100E2C001A604FF0FF3309E0084B1B68FB60074B5F
:100E3C001A687B681344054A1360FB681846183718
:100E4C00BD4680BD00280020000400000C010020DD
:100E5C006002002080B400AF00BFBD4680BC70476C
:100E6C00FFF7F8FF0B480C490C4A002302E0D4585A
:100E7C00C4500433C4188C42F9D3094A094C0023DA
:100E8C0001E013600432A242FBD301F013FEFFF722
:100E9C000DFC70470000002084000020782F000813
:100EAC008400002060020020FEE7000080B500AF47
:100EBC00084B1B68074A43F010031360032000F033
:100ECC0023F90F2000F008F8FFF782FE00231846E4
:100EDC0080BD00BF0020024080B582B000AF7860BA
:100EEC00124B1A68124B1B7819464FF47A73B3FBEA
:100EFC00F1F3B2FBF3F3184600F03BF90346002B79
:100F0C0001D001230EE07B680F2B0AD800227968F0
:100F1C004FF0FF3000F003F9064A7B6813600023A2
:100F2C0000E0012318460837BD4680BD1C00002098
:100F3C00240000202000002080B400AF054B1B785B
:100F4C001A46054B1B681344034A136000BFBD4689
:100F5C0080BC7047240000201001002080B400AF3A
:100F6C00024B1B681846BD4680BC70471001002020
:100F7C0080B485B000AF78607B6803F00703FB603A
:100F8C000C4BDB68BB60BA684FF6FF031340BB60C9
:100F9C00FB681A02BB68134343F0BF6343F400338E
:100FAC00BB60044ABB68D36000BF1437BD4680BC2D
:100FBC00704700BF00ED00E080B400AF044BDB686D
:100FCC001B0A03F007031846BD4680BC704700BFE0
:100FDC0000ED00E080B483B000AF0346FB7197F9DD
:100FEC000730002B0BDBFB7903F01F02064997F946
:100FFC0007305B09012000FA02F241F8232000BF00
:10100C000C37BD4680BC704700E100E080B483B073
:10101C0000AF03463960FB7197F90730002B0ADBF0
:10102C003B68DAB20C4997F907301201D2B20B4483
:10103C0083F800230AE03B68DAB20849FB7903F035
:10104C000F03043B1201D2B20B441A7600BF0C37CB
:10105C00BD4680BC704700BF00E100E000ED00E041
:10106C0080B489B000AFF860B9607A60FB6803F0B7
:10107C000703FB61FB69C3F10703042B28BF04239F
:10108C00BB61FB690433062B02D9FB69033B00E00F
:10109C0000237B614FF0FF32BB6902FA03F3DA43A2
:1010AC00BB681A407B699A404FF0FF317B6901FAAB
:1010BC0003F3D9437B680B40134318462437BD46D2
:1010CC0080BC704780B582B000AF78607B68013B14
:1010DC00B3F1807F01D301230FE00A4A7B68013B07
:1010EC0053600F214FF0FF30FFF790FF054B0022AC
:1010FC009A60044B07221A60002318460837BD4635
:10110C0080BD00BF10E000E080B582B000AF786019
:10111C007868FFF72DFF00BF0837BD4680BD80B54E
:10112C0086B000AF0346B9607A60FB7300237B6125
:10113C00FFF742FF78617A68B9687869FFF790FF2A
:10114C00024697F90F3011461846FFF75FFF00BFB4
:10115C001837BD4680BD80B582B000AF0346FB7129
:10116C0097F907301846FFF735FF00BF0837BD4623
:10117C0080BD80B582B000AF78607868FFF7A2FFC1
:10118C00034618460837BD4680BD000080B48BB0BE
:10119C0000AF7860396000237B6200233B6261E121
:1011AC0001227B6A02FA03F3FB613B681B68FA6954
:1011BC001340BB61BA69FB699A4240F050813B68AD
:1011CC005B68974A93425ED0954A934275D8954A8C
:1011DC00934258D0934A93426FD8934A934252D039
:1011EC00914A934269D8914A93424CD08F4A934288
:1011FC0063D88F4A934246D08D4A93425DD8122BC6
:10120C002AD8122B59D801A252F823F093120008B5
:10121C006D1200087F120008C1120008C7120008E6
:10122C00C7120008C7120008C7120008C71200082E
:10123C00C7120008C7120008C7120008C71200081E
:10124C00C7120008C7120008C7120008C71200080E
:10125C007512000889120008764A934213D02CE0CC
:10126C003B68DB683B6229E03B68DB6804333B622C
:10127C0024E03B68DB6808333B621FE03B68DB68BB
:10128C000C333B621AE03B689B68002B02D10423B1
:10129C003B6213E03B689B68012B05D108233B6242
:1012AC007B68FA691A6109E008233B627B68FA697A
:1012BC005A6103E000233B6200E000BFBB69FF2BD7
:1012CC0001D87B6801E07B6804337B61BB69FF2B31
:1012DC0002D87B6A9B0002E07B6A083B9B003B6167
:1012EC007B691A680F213B6901FA03F3DB431A404F
:1012FC00396A3B6901FA03F31A437B691A603B684C
:10130C005B6803F08053002B00F0A9804A4B9B696B
:10131C00494A43F001039361474B9B6903F0010376
:10132C00BB60BB68454A7B6A9B08023352F823308A
:10133C00FB607B6A03F003039B000F2202FA03F3AA
:10134C00DB43FA681340FB607B683D4A93420DD047
:10135C007B683C4A934207D07B683B4A934201D15D
:10136C00022304E0032302E0012300E000237A6A55
:10137C0002F0030292009340FA681343FB602F497A
:10138C007B6A9B080233FA6841F823203B685B6850
:10139C0003F48013002B06D02C4B9A682B49BB69A5
:1013AC0013438B6006E0294B9A68BB69DB432749E2
:1013BC0013408B603B685B6803F40013002B06D072
:1013CC00224BDA682149BB691343CB6006E01F4B03
:1013DC00DA68BB69DB431D491340CB603B685B6833
:1013EC0003F40033002B06D0184B5A681749BB691D
:1013FC0013434B6006E0154B5A68BB69DB4313493A
:10140C0013404B603B685B6803F48033002B1FD0A8
:10141C000E4B1A680D49BB6913430B601FE000BFEC
:10142C0000003210000031100000221000002110CA
:10143C0000001210000011100010024000000140CA
:10144C0000080140000C0140001001400004014064
:10145C000B4B1A68BB69DB43094913400B607B6A71
:10146C0001337B623B681A687B6A22FA03F3002B18
:10147C007FF496AE00BF00BF2C37BD4680BC7047D2
:10148C000004014080B483B000AF78600B467B80D1
:10149C0013467B707B78002B03D07A887B681A61AB
:1014AC0003E07B881A047B681A6100BF0C37BD46C9
:1014BC0080BC704780B485B000AF78600B467B80F1
:1014CC007B68DB68FB607A88FB6813401A04FB6856
:1014DC00D9437B880B401A437B681A6100BF1437D1
:1014EC00BD4680BC7047000080B586B000AF786008
:1014FC007B68002B01D1012372E27B681B6803F02F
:10150C000103002B00F08780924B5B6803F00C0307
:10151C00042B0CD08F4B5B6803F00C03082B12D1FF
:10152C008C4B5B6803F48033B3F5803F0BD1894B54
:10153C001B6803F40033002B6CD07B685B68002BBA
:10154C0068D101234CE27B685B68B3F5803F06D120
:10155C00804B1B687F4A43F4803313602EE07B681A
:10156C005B68002B0CD17B4B1B687A4A23F48033CD
:10157C001360784B1B68774A23F4802313601DE0BB
:10158C007B685B68B3F5A02F0CD1724B1B68714A5A
:10159C0043F4802313606F4B1B686E4A43F4803313
:1015AC0013600BE06B4B1B686A4A23F480331360A7
:1015BC00684B1B68674A23F4802313607B685B6865
:1015CC00002B13D0FFF7CAFC386108E0FFF7C6FC0C
:1015DC0002463B69D31A642B01D9032300E25D4B0D
:1015EC001B6803F40033002BF0D014E0FFF7B6FCBB
:1015FC00386108E0FFF7B2FC02463B69D31A642B52
:10160C0001D90323ECE1534B1B6803F40033002B8B
:10161C00F0D100E000BF7B681B6803F00203002BD5
:10162C0063D04C4B5B6803F00C03002B0BD0494B85
:10163C005B6803F00C03082B1CD1464B5B6803F46E
:10164C008033002B16D1434B1B6803F00203002B95
:10165C0005D07B681B69012B01D00123C0E13D4BF8
:10166C001B6823F0F8027B685B69DB003949134384
:10167C000B603AE07B681B69002B20D0364B0122B3
:10168C001A60FFF76BFC386108E0FFF767FC024655
:10169C003B69D31A022B01D90323A1E12D4B1B6803
:1016AC0003F00203002BF0D02A4B1B6823F0F80246
:1016BC007B685B69DB00274913430B6015E0264B05
:1016CC0000221A60FFF74AFC386108E0FFF746FC7D
:1016DC0002463B69D31A022B01D9032380E11D4B2F
:1016EC001B6803F00203002BF0D17B681B6803F02E
:1016FC000803002B3AD07B689B69002B19D0174B41
:10170C0001221A60FFF72AFC386108E0FFF726FC7B
:10171C0002463B69D31A022B01D9032360E10D4B1E
:10172C005B6A03F00203002BF0D0012000F09CFA5E
:10173C001CE00A4B00221A60FFF710FC38610FE026
:10174C00FFF70CFC02463B69D31A022B08D9032382
:10175C0046E100BF001002400000424280044242B9
:10176C00924B5B6A03F00203002BE9D17B681B6888
:10177C0003F00403002B00F0A6800023FB758B4BB9
:10178C00DB6903F08053002B0DD1884BDB69874A52
:10179C0043F08053D361854BDB6903F08053BB600E
:1017AC00BB680123FB75824B1B6803F48073002B11
:1017BC0018D17F4B1B687E4A43F480731360FFF78C
:1017CC00CDFB386108E0FFF7C9FB02463B69D31A31
:1017DC00642B01D9032303E1754B1B6803F480735D
:1017EC00002BF0D07B68DB68012B06D16F4B1B6A9A
:1017FC006E4A43F0010313622DE07B68DB68002B1B
:10180C000CD16A4B1B6A694A23F001031362674BC4
:10181C001B6A664A23F0040313621CE07B68DB68D6
:10182C00052B0CD1614B1B6A604A43F00403136215
:10183C005E4B1B6A5D4A43F0010313620BE05B4B8A
:10184C001B6A5A4A23F001031362584B1B6A574A0E
:10185C0023F0040313627B68DB68002B15D0FFF7C1
:10186C007DFB38610AE0FFF779FB02463B69D31A2E
:10187C0041F28832934201D90323B1E04B4B1B6AEE
:10188C0003F00203002BEED014E0FFF767FB386186
:10189C000AE0FFF763FB02463B69D31A41F2883238
:1018AC00934201D903239BE0404B1B6A03F00203D4
:1018BC00002BEED1FB7D012B05D13C4BDB693B4A68
:1018CC0023F08053D3617B68DB69002B00F08780A9
:1018DC00364B5B6803F00C03082B61D07B68DB692B
:1018EC00022B46D1334B00221A60FFF737FB3861CD
:1018FC0008E0FFF733FB02463B69D31A022B01D9F0
:10190C0003236DE0294B1B6803F00073002BF0D10F
:10191C007B681B6AB3F5803F08D1244B5B6823F4CA
:10192C0000327B689B68214913434B601F4B5B68FB
:10193C0023F474127B68196A7B685B6A0B431B493E
:10194C0013434B601B4B01221A60FFF707FB3861F6
:10195C0008E0FFF703FB02463B69D31A022B01D9BF
:10196C0003233DE0114B1B6803F00073002BF0D0F8
:10197C0035E0104B00221A60FFF7F0FA386108E0EE
:10198C00FFF7ECFA02463B69D31A022B01D9032369
:10199C0026E0064B1B6803F00073002BF0D11EE011
:1019AC007B68DB69012B07D1012319E00010024091
:1019BC0000700040600042420B4B5B68FB60FB68B0
:1019CC0003F480327B681B6A9A4206D1FB6803F4ED
:1019DC0070127B685B6A9A4201D0012300E00023FD
:1019EC0018461837BD4680BD0010024080B584B043
:1019FC0000AF786039607B68002B01D10123D0E007
:101A0C006A4B1B6803F007033A689A4210D9674B7C
:101A1C001B6823F0070265493B6813430B60634B5B
:101A2C001B6803F007033A689A4201D00123B8E01F
:101A3C007B681B6803F00203002B20D07B681B68BB
:101A4C0003F00403002B05D0594B5B68584A43F450
:101A5C00E06353607B681B6803F00803002B05D020
:101A6C00534B5B68524A43F460535360504B5B6872
:101A7C0023F0F0027B689B684D4913434B607B68F5
:101A8C001B6803F00103002B40D07B685B68012BC3
:101A9C0007D1474B1B6803F40033002B15D10123EE
:101AAC007FE07B685B68022B07D1414B1B6803F01E
:101ABC000073002B09D1012373E03D4B1B6803F02D
:101ACC000203002B01D101236BE0394B5B6823F03F
:101ADC0003027B685B68364913434B60FFF73EFAA1
:101AEC00F8600AE0FFF73AFA0246FB68D31A41F2B3
:101AFC008832934201D9032353E02D4B5B6803F0EA
:101B0C000C027B685B689B009A42EBD1274B1B68ED
:101B1C0003F007033A689A4210D2244B1B6823F057
:101B2C00070222493B6813430B60204B1B6803F0F0
:101B3C0007033A689A4201D0012332E07B681B68A4
:101B4C0003F00403002B08D0194B5B6823F4E0620C
:101B5C007B68DB68164913434B607B681B6803F09A
:101B6C000803002B09D0124B5B6823F460527B688E
:101B7C001B69DB000E4913434B6000F021F8024651
:101B8C000B4B5B681B0903F00F030A49CB5C22FA71
:101B9C0003F3094A1360094B1B681846FFF79CF9BD
:101BAC00002318461037BD4680BD00BF0020024000
:101BBC00001002404C2F00081C00002020000020C8
:101BCC0080B487B000AF0023FB600023BB60002310
:101BDC007B6100237B6000233B611E4B5B68FB60D9
:101BEC00FB6803F00C03042B02D0082B03D027E076
:101BFC00194B3B6127E0FB689B0C03F00F03174A62
:101C0C00D35C7B60FB6803F48033002B10D0114B4A
:101C1C005B685B0C03F00103114AD35CBB607B680F
:101C2C000D4A03FB02F2BB68B2FBF3F37B6104E0E9
:101C3C007B680C4A02FB03F37B617B693B6102E02E
:101C4C00054B3B6100BF3B6918461C37BD4680BC49
:101C5C00704700BF0010024000127A005C2F000891
:101C6C006C2F000800093D0080B485B000AF78608F
:101C7C000A4B1B680A4AA2FB03235B0A7A6802FB25
:101C8C0003F3FB6000BFFB685A1EFA60002BF9D10E
:101C9C0000BF00BF1437BD4680BC70471C0000203D
:101CAC00D34D621080B582B000AF78607B68002B9A
:101CBC0001D1012341E07B6893F83D30DBB2002B6E
:101CCC0006D17B68002283F83C207868FEF7B2FFCF
:101CDC007B68022283F83D207B681A687B6804339A
:101CEC001946104600F06EFA7B68012283F84620F4
:101CFC007B68012283F83E207B68012283F83F2019
:101D0C007B68012283F840207B68012283F8412004
:101D1C007B68012283F842207B68012283F84320F0
:101D2C007B68012283F844207B68012283F84520DC
:101D3C007B68012283F83D20002318460837BD46F6
:101D4C0080BD000080B485B000AF78607B6893F8EC
:101D5C003D30DBB2012B01D0012335E07B68022240
:101D6C0083F83D207B681B68DA687B681B6842F04F
:101D7C000102DA607B681B68164A934209D07B68C3
:101D8C001B68B3F1804F04D07B681B68124A9342E6
:101D9C0011D17B681B689B6803F00703FB60FB6831
:101DAC00062B10D07B681B681A687B681B6842F096
:101DBC0001021A6007E07B681B681A687B681B6865
:101DCC0042F001021A60002318461437BD4680BC4D
:101DDC00704700BF002C01400004004080B582B069
:101DEC0000AF78607B681B681B6903F00203022B51
:101DFC0022D17B681B68DB6803F00203022B1BD12A
:101E0C007B681B686FF002021A617B6801221A77EB
:101E1C007B681B689B6903F00303002B03D0786875
:101E2C0000F0B4F905E0786800F0A7F9786800F0E4
:101E3C00B6F97B6800221A777B681B681B6903F074
:101E4C000403042B22D17B681B68DB6803F00403BA
:101E5C00042B1BD17B681B686FF004021A617B6832
:101E6C0002221A777B681B689B6903F44073002B72
:101E7C0003D0786800F08AF905E0786800F07DF905
:101E8C00786800F08CF97B6800221A777B681B68F5
:101E9C001B6903F00803082B22D17B681B68DB68E5
:101EAC0003F00803082B1BD17B681B686FF008023A
:101EBC001A617B6804221A777B681B68DB6903F064
:101ECC000303002B03D0786800F060F905E0786814
:101EDC0000F053F9786800F062F97B6800221A77F9
:101EEC007B681B681B6903F01003102B22D17B68E5
:101EFC001B68DB6803F01003102B1BD17B681B687D
:101F0C006FF010021A617B6808221A777B681B68D5
:101F1C00DB6903F44073002B03D0786800F036F9CA
:101F2C0005E0786800F029F9786800F038F97B68EA
:101F3C0000221A777B681B681B6903F00103012BD5
:101F4C000ED17B681B68DB6803F00103012B07D102
:101F5C007B681B686FF001021A617868FEF782FDDE
:101F6C007B681B681B6903F08003802B0ED17B6898
:101F7C001B68DB6803F08003802B07D17B681B6830
:101F8C006FF080021A61786800F06BFA7B681B684E
:101F9C001B6903F04003402B0ED17B681B68DB6888
:101FAC0003F04003402B07D17B681B686FF04002A5
:101FBC001A61786800F0FCF87B681B681B6903F0F9
:101FCC002003202B0ED17B681B68DB6803F02003F9
:101FDC00202B07D17B681B686FF020021A61786890
:101FEC0000F036FA00BF0837BD4680BD80B584B01E
:101FFC0000AF786039600023FB737B6893F83C304A
:10200C00012B01D10223B4E07B68012283F83C2030
:10201C007B68022283F83D207B681B689B68BB6051
:10202C00BB6823F07703BB60BB6823F47F43BB60C2
:10203C007B681B68BA689A603B681B68B3F5005FE5
:10204C003ED0B3F5005F00F28780B3F5805F00F0FF
:10205C008680B3F5805F7FD8702B1AD0702B7BD81D
:10206C00602B50D0602B77D8502B3CD0502B73D892
:10207C00402B58D0402B6FD8302B64D0302B6BD8E2
:10208C00202B60D0202B67D8002B5CD0102B5AD083
:10209C0062E07B6818683B6899683B685A683B68E3
:1020AC00DB6800F05EF97B681B689B68BB60BB68F3
:1020BC0043F07703BB607B681B68BA689A604FE09B
:1020CC007B6818683B6899683B685A683B68DB68B2
:1020DC0000F047F97B681B689A687B681B6842F4C0
:1020EC0080429A603CE07B6818683B6859683B68A2
:1020FC00DB681A4600F0BEF87B681B685021184656
:10210C0000F015F92CE07B6818683B6859683B684F
:10211C00DB681A4600F0DCF87B681B686021184607
:10212C0000F005F91CE07B6818683B6859683B684F
:10213C00DB681A4600F09EF87B681B684021184645
:10214C0000F0F5F80CE07B681A683B681B681946D0
:10215C00104600F0ECF803E00123FB7300E000BF35
:10216C007B68012283F83D207B68002283F83C20A9
:10217C00FB7B18461037BD4680BD80B483B000AFE2
:10218C00786000BF0C37BD4680BC704780B483B00C
:10219C0000AF786000BF0C37BD4680BC704780B480
:1021AC0083B000AF786000BF0C37BD4680BC704771
:1021BC0080B483B000AF786000BF0C37BD4680BCE4
:1021CC007047000080B485B000AF786039607B68E0
:1021DC001B68FB607B68254A934207D07B68B3F190
:1021EC00804F03D07B68224A934208D1FB6823F0CE
:1021FC007003FB603B685B68FA681343FB607B68A9
:10220C001A4A934207D07B68B3F1804F03D07B68A6
:10221C00174A934208D1FB6823F44073FB603B6878
:10222C00DB68FA681343FB60FB6823F080023B68B1
:10223C005B691343FB607B68FA681A603B689A68B9
:10224C007B68DA623B681A687B689A627B68074A2B
:10225C00934203D13B681A697B681A637B6801223D
:10226C005A6100BF1437BD4680BC7047002C01403A
:10227C000004004080B487B000AFF860B9607A60A9
:10228C00FB681B6A7B61FB681B6A23F00102FB681D
:10229C001A62FB689B693B613B6923F0F0033B616D
:1022AC007B681B013A6913433B617B6923F00A038A
:1022BC007B617A69BB6813437B61FB683A699A61FD
:1022CC00FB687A691A6200BF1C37BD4680BC704738
:1022DC0080B487B000AFF860B9607A60FB681B6AA5
:1022EC007B61FB681B6A23F01002FB681A62FB68B7
:1022FC009B693B613B6923F470433B617B681B0327
:10230C003A6913433B617B6923F0A0037B61BB6893
:10231C001B017A6913437B61FB683A699A61FB681C
:10232C007A691A6200BF1C37BD4680BC704780B406
:10233C0085B000AF786039607B689B68FB60FB6898
:10234C0023F07003FB603A68FB68134343F0070308
:10235C00FB607B68FA689A6000BF1437BD4680BC8E
:10236C00704780B487B000AFF860B9607A603B60AA
:10237C00FB689B687B617B6923F47F437B613B68D3
:10238C001A027B681A43BB6813437A6913437B6157
:10239C00FB687A699A6000BF1C37BD4680BC7047E9
:1023AC0080B485B000AF786039607B6893F83C30BE
:1023BC00012B01D1022341E07B68012283F83C20F0
:1023CC007B68022283F83D207B681B685B68FB609E
:1023DC007B681B689B68BB60FB6823F07003FB6029
:1023EC003B681B68FA681343FB607B681B68FA68E0
:1023FC005A607B681B68144A934209D07B681B683F
:10240C00B3F1804F04D07B681B68104A93420CD107
:10241C00BB6823F08003BB603B685B68BA681343FE
:10242C00BB607B681B68BA689A607B68012283F882
:10243C003D207B68002283F83C200023184614378B
:10244C00BD4680BC704700BF002C0140000400401A
:10245C0080B483B000AF786000BF0C37BD4680BC41
:10246C00704780B483B000AF786000BF0C37BD46B6
:10247C0080BC704708B5064B044613B10021AFF37E
:10248C000080044B1B6803B198472046FEF738FCCC
:10249C000000000054020020024B0146186800F0B6
:1024AC0023B800BF8000002070B50E4E0C4631687A
:1024BC00054611B900F0D6FA30602146284600F0E6
:1024CC00D1FA431C0AD0C41C24F00304A04207D048
:1024DC00211A284600F0C6FA013001D14FF0FF3422
:1024EC00204670BD180100202DE9F843CD1C25F0C5
:1024FC00030508350C2D38BF0C25002D074601DBD4
:10250C00A94205D90C2300263B603046BDE8F88370
:10251C00DFF8D08000F068F8D8F800301C465CBBBF
:10252C0029463846FFF7C0FF431C044655D1D8F85E
:10253C0000402646002E45D1002C48D02368314659
:10254C00384604EB030900F08DFA81453FD1216830
:10255C0038466D1A2946FFF7A7FF013037D023689C
:10256C002B442360D8F80030002B38D05A68A24294
:10257C002BD100225A600FE02268521B1FD40B2A69
:10258C0017D96119A342256018BF5960636808BF49
:10259C00C8F8001062514B60384604F10B0600F08D
:1025AC0029F826F00706231DF21AAED09B1BA35068
:1025BC00ABE7A3426268DDD1C8F80020ECE7234604
:1025CC006468ACE734467668B4E71346CCE70C2372
:1025DC0038463B6000F00EF897E72560DCE75B605F
:1025EC00FFDE00BF14010020014800F088BA00BFD4
:1025FC005C020020014800F083BA00BF5C0200209E
:10260C00002310B50446C0E90033C0E904338360ED
:10261C0081814366C2818361194608225C3000F0D7
:10262C00E5F90D4B246263620C4BA3620C4BE36225
:10263C000C4B23630C4B9C4206D003F16802944272
:10264C0002D0D0339C4205D104F15800BDE81040B3
:10265C0000F054BA10BD00BF492800086B280008D0
:10266C00A3280008C72800081C010020024A0349BF
:10267C00034800F069B800BF28000020C12C0008F6
:10268C003400002041680C4B10B59942044601D02F
:10269C0000F010FBA168094B994202D0204600F0D3
:1026AC0009FBE168064B994204D02046BDE8104076
:1026BC0000F000BB10BD00BF1C01002084010020F5
:1026CC00EC01002010B50B4B0B4C0C4A20461A6049
:1026DC0004210022FFF794FF04F168000122092174
:1026EC00FFF78EFF04F1D0000222BDE8104012214A
:1026FC00FFF786BF540200201C0100207926000839
:10270C00014800F0FCB900BF5D020020014800F058
:10271C00F7B900BF5D02002010B50446FFF7F0FFCB
:10272C00236A1BB1BDE81040FFF7F0BF044B2362D6
:10273C00044B1B68002BF5D1FFF7C4FFF2E700BF79
:10274C0091260008540200202DE9F84307468846DC
:10275C0014460026D4E90195B9F1010905D5246880
:10276C00002CF7D13046BDE8F883AB89012B07D993
:10277C00B5F90E30013303D029463846C04706431D
:10278C006835E9E7036A70B505460E4684680BB9EF
:10279C00FFF7C2FF636EDB0705D4A389980502D44B
:1027AC00A06D00F0ACF9A389190713D523698BB17F
:1027BC00013EA36816F8011F013BA360E9B9002B89
:1027CC002EDA22460A21284600F07BF8013007D089
:1027DC000A2507E02146284600F0B0F80028E7D08B
:1027EC004FF0FF35636EDA0705D4A3899B0502D43D
:1027FC00A06D00F085F9284670BD002B04DAA269A3
:10280C009A4206DC0A2904D023685A1C22601970EB
:10281C00CFE72246284600F054F80130C9D1DFE753
:10282C000A2523685A1C22601D70DBE7024B014607
:10283C001868FFF7A7BF00BF8000002010B50C463A
:10284C00B1F90E1000F0FCF80028ABBF636DA38942
:10285C001B1823F48053ACBF6365A38110BD2DE915
:10286C00F0411F468B890546DB050C46164605D5FF
:10287C0002230022B1F90E1000F0D0F8A3893246E1
:10288C0023F48053A38128463B46B4F90E10BDE8CF
:10289C00F04100F0F7B810B50C46B1F90E1000F08D
:1028AC00BDF8431CA38915BF606523F4805343F422
:1028BC008053A38118BFA38110BDB1F90E1000F095
:1028CC009DB8F8B50E461446054618B1036A0BB907
:1028DC00FFF722FFA369A360A3891A0725D52369F3
:1028EC001BB323682269F6B2981A63693746834290
:1028FC0004DC2146284600F0DDF9E0B9A368013B71
:10290C00A36023685A1C22601E706269431C9A42A1
:10291C0004D0A389DB0706D50A2E04D1214628460C
:10292C0000F0C8F938B93846F8BD2146284600F001
:10293C0005F80028D5D04FF0FF37F4E738B52A4B0F
:10294C00054618680C4618B1036A0BB9FFF7E4FE8C
:10295C00A389B4F90C20180722D4D90607D409236B
:10296C002B6042F040034FF0FF30A38134E0580756
:10297C0012D5616B41B104F14403994202D028464F
:10298C0000F0CEF800236363A38923F02403A38112
:10299C000023636023692360A38943F00803A381A8
:1029AC0023694BB9A38903F42073B3F5007F03D0DB
:1029BC002146284600F0CBF9A089B4F90C2010F080
:1029CC0001030AD00023A36063695B42A3612369FE
:1029DC0043B910F08000C4D138BD810758BF63697A
:1029EC00A360F4E70020F7E78000002003460244D0
:1029FC00934200D1704703F8011BF9E738B5002367
:102A0C00054D044608462B60FEF7BDF9431C02D168
:102A1C002B6803B1236038BD5802002038B504463A
:102A2C00084611460022054D2A601A46FEF7CFF9DA
:102A3C00431C02D12B6803B1236038BD580200201F
:102A4C0038B50446084611460022054D2A601A4640
:102A5C00FEF760F9431C02D12B6803B1236038BD2B
:102A6C005802002038B50023054D044608462B605B
:102A7C00FEF7BAF9431C02D12B6803B1236038BDB1
:102A8C005802002038B50446084611460022054D70
:102A9C002A601A46FEF75BF9431C02D12B6803B17E
:102AAC00236038BD58020020014B1868704700BFE6
:102ABC008000002070B500260C4D0D4C641BA4103A
:102ACC00A64209D100F0A2F900260A4D0A4C641B5B
:102ADC00A410A64205D170BD55F8043B98470136A9
:102AEC00EEE755F8043B98470136F2E7702F0008E3
:102AFC00702F0008702F0008742F00087047704763
:102B0C0070470A44914200F1FF3300D1704710B571
:102B1C0011F8014B914203F8014FF9D110BD00009F
:102B2C0038B50546002940D051F8043C0C1F002B49
:102B3C00B8BFE418FFF758FD1C4A136833B963603B
:102B4C0014602846BDE83840FFF754BDA34208D9AD
:102B5C00206821188B4201BF19685B680918216035
:102B6C00EDE71A465B680BB1A342FAD9116850180D
:102B7C00A0420BD120680144501883421160E0D16F
:102B8C0018685B68084410605360DAE702D90C23BC
:102B9C002B60D6E7206821188B4201BF19685B684F
:102BAC000918216063605460CBE738BD1401002024
:102BBC008A89F8B5054610070C4657D44B68002B8C
:102BCC0004DC0B6C002B01DC0020F8BDE66A002E47
:102BDC00FAD0002312F480522F68216A2B6032D075
:102BEC00606DA3895A0705D56368C01A636B0BB176
:102BFC00236CC01A00230246E66A2846216AB047B5
:102C0C00431CA38906D129681D292BD8284A0A41BF
:102C1C00D60727D4002262602269D904226004D529
:102C2C00421C01D12B6803B96065616B2F600029D0
:102C3C00CAD004F14403994202D02846FFF770FF32
:102C4C0000206063C1E701232846B047411CC8D16E
:102C5C002B68002BC5D01D2B01D0162B01D12F605A
:102C6C00B2E7A38943F04003A381AEE70F69002FBD
:102C7C00AAD0930718BF00230E6808BF4B69F61B38
:102C8C000F608B60002E9FDD33463A462846216A42
:102C9C00D4F828C0E047002806DCA3894FF0FF30A9
:102CAC0043F04003A38190E70744361AEAE700BFDC
:102CBC00FEFFBFDF38B50B6905460C4613B900257E
:102CCC00284638BD18B1036A0BB9FFF725FDB4F9D6
:102CDC000C30002BF3D0626ED00704D4990502D4CB
:102CEC00A06DFFF70CFF28462146FFF761FF636ECE
:102CFC000546DA07E4D4A3899B05E1D4A06DFFF760
:102D0C00FFFEDDE770B50C46B1F90E101546002933
:102D1C001E4696B00CDAA389002113F0800F0CBF6D
:102D2C004FF480634023002031602B6016B070BDDF
:102D3C006A4600F049F80028EDDB019901F4704176
:102D4C00A1F50053594259414FF48063EBE78B894D
:102D5C0073B59D0706460C4607D504F1470323605F
:102D6C0023610123636102B070BD6A4601ABFFF7BA
:102D7C00C9FF009905463046FFF7B6FB48B9B4F9D0
:102D8C000C309A05EFD423F0030343F00203A38124
:102D9C00E3E7A389206043F08003A381009B2061BB
:102DAC006361019B5BB13046B4F90E1000F01EF864
:102DBC0028B1A38923F0030343F00103A381A38962
:102DCC001D43A581CFE7000038B50023064D04460E
:102DDC00084611462B60FDF7E1FF431C02D12B681E
:102DEC0003B1236038BD00BF5802002038B5002362
:102DFC00054D044608462B60FDF7DFFF431C02D14E
:102E0C002B6803B1236038BD58020020F8B500BF11
:102E1C00F8BC08BC9E467047F8B500BFF8BC08BCAF
:042E2C009E46704707
:102E30004D656D6F727920616C6C6F636174696F41
:102E40006E206661696C656400000000000000008F
:102E50000000000000000000010000000100000070
:102E60000000000000000000000000000000000062
:102E7000000000000100000001000000010000004F
:102E80000100000000000000000000000000000041
:102E90000100000001000000000000000000000030
:102EA0000100000001000000000000000000000020
:102EB0000100000001000000000000000000000010
:102EC0000100000001000000000000000000000000
:102ED00001000000010000000100000001000000EE
:102EE00001000000010000000000000000000000E0
:102EF00001000000010000000100000001000000CE
:102F000001000000010000000000000000000000BF
:102F100001000000010000000000000000000000AF
:102F2000010000000100000000000000000000009F
:102F3000010000000100000000000000000000008F
:102F4000010000000100000000000000000000007F
:102F5000000000000102030406070809020304053B
:102F6000060708090A0B0C0D0E0F101001020000D5
:042F70003101000823
:042F74000D01000843
:102F7800010000000200000003000000040000003F
:102F88000F00000008000000320000000024F400D8
:102F98001000000001000000000000000300000015
:102FA8001C010020000000001C01002084010020FA
:102FB800EC010020000000000000000000000000FC
:102FC80000000000000000000000000000000000F9
:102FD80000000000000000000000000000000000E9
:102FE80000000000000000000000000000000000D9
:042FF8003400002081
:0400000508000E6D74
:00000001FF
